:100000000C9434000C943E000C943E000C943E0082
:100010000C943E000C943E000C943E000C943E0068
:100020000C943E000C943E000C943E000C943E0058
:100030000C943E000C943E000C943E000C943E0048
:100040000C943E000C943E000C943E000C943E0038
:100050000C943E000C943E000C943E000C943E0028
:100060000C943E000C943E0011241FBECFEFD8E04C
:10007000DEBFCDBF0E9440000C9453000C940000E2
:10008000529A24E08BB182278BB990E080E0EFE3B5
:10009000FCE93197F1F700C000000196843FF1E0E0
:0A00A0009F07A9F7EFCFF894FFCFF8
:00000001FF
